:020000040800F2
:10300000A0FB00204931000893C50108F3AC01087A
:103010001DBD0108015900086945020800000000B3
:10302000000000000000000000000000392302083A
:10303000ADF5000800000000AF31000805370208B8
:103040006331000863310008633100086331000810
:103050006331000863310008633100086331000800
:1030600063310008633100086331000863310008F0
:1030700063310008633100086331000863310008E0
:103080006331000863310008A93D0008633100087E
:103090006331000863310008633100083D7E010898
:1030A00063310008633100086331000863310008B0
:1030B00063310008633100086331000863310008A0
:1030C0006331000863310008633100086331000890
:1030D00063310008F53E020863310008DD40020854
:1030E0006331000863310008633100086331000870
:1030F0006331000863310008633100086331000860
:10310000633100086331000863310008633100084F
:103110008D3E020863310008633100084938020817
:10312000633100086331000863310008633100082F
:10313000DFF810D000F0AAFD00F020F900480047A9
:10314000055E0208A0FB00200648804706480047AD
:10315000FEE7FEE7FEE7FEE7FEE7FEE7FEE7FEE747
:10316000FEE7FEE78D37020831310008EFF31080EB
:1031700072B6704780F3108870471D484FF0FF010A
:103180000170002080F309881A48012101701A4853
:103190004FF08051016062B6FEE717484FF0805152
:1031A0000160704714484FF080510160704772B65B
:1031B000EFF3098028B1203880E8F00F0F49096843
:1031C000086000B50E4880475DF804EB0D480E49D5
:1031D0000A78027009480D490A680260106890E890
:1031E000F00F203080F309884EF0040E62B670476D
:1031F00022ED00E03A00002004ED00E04000002055
:1032000039DA01082F00002030000020480000209B
:103210002DE9FE43994615468846074601AC02292A
:1032200042D3002D40D000200290A8F101004FF0C1
:10323000FF36009022E000FB057201FB057011468D
:103240004A469047002805DC54F82600304444F8EC
:10325000260013E060682A4600FB057154F8040C50
:1032600000FB057007E00B7890F800C001F801CB77
:1032700000F8013B521E002AF5D1764254F8040CA6
:1032800061688842D7DC4B462A463846FFF7C0FFC4
:1032900054F8040C4B46A8EB0001401C00FB0570E1
:1032A0002A46491EFFF7B4FFBDE8FE830649074AD8
:1032B0000868504343F239021044086040087047E0
:1032C0000149086070470000F40700206D4EC641B8
:1032D00040EA01039B0703D009E008C9121F08C098
:1032E000042AFAD203E011F8013B00F8013B521E18
:1032F000F9D27047D2B201E000F8012B491EFBD28F
:1033000070470022F6E710B513460A4604461946F0
:10331000FFF7F0FF204610BD30B505462A460B46A4
:1033200012F8010B13F8014B08B1A042F8D01CB100
:10333000002802D06D1CF1E7284630BD10B50446C8
:1033400004E00B7800F8013B03B1491C521EF8D28F
:10335000204610BD421C10F8011B0029FBD1801A29
:10336000704730B504460020034600E05B1C9342E2
:1033700003D2E05CCD5C401BF8D030BD70B5054C8D
:10338000054D03E0206820448047241DAC42F9D15C
:1033900070BD00004410030848100308F0B480EA30
:1033A0000102D40F4200B2EB410F02D2024608469E
:1033B00011464A0042D0C30DDDB2C1F3C752AD1A67
:1033C000202D35DAC1F3160141F4000204B1524256
:1033D000C5F1200602FA06F12A411044B3EBD05F92
:1033E00023D0C4B1012DA0EBC35009DCF0BC4FF0D9
:1033F000004202EAC352DBB200F5000000F08BBBD2
:10340000400000F1807000EBC350A0F1807040EAF2
:10341000D170490009E0490841EAC071A0EBC350EE
:1034200000F50000400800EBC350F0BC00F06ABBA0
:103430006142012202EB4101001BF6E7F0BC70473C
:1034400081F00041AAE780F00040A7E780EA01028E
:1034500010B502F00043400022D04A001FD0010EF8
:1034600001EB1261C0F35600C2F3560240F40000B3
:1034700042F40002A0FB022000047F39140400D0B3
:10348000401C50EA124001D44000491EC2B20C0652
:1034900004EBD010401C4008802A02D003E000203A
:1034A00010BD20F00100002900DA0020184310BDF3
:1034B00030B480EA010202F0004530F0004221F011
:1034C000004013D090B1C30DD40DC2F31601C0F368
:1034D0001600E41A41F4000140F400027D349142E8
:1034E00001D3641C00E04900002C02DA30BC00204B
:1034F00070474FF400000023914201D3891A03431F
:1035000040084FEA4101F7D151B1914202D14FF049
:10351000004105E002D24FF0010101E06FF001012E
:1035200003EBC450284430BC00F0ECBA2DE9FE4F48
:10353000804681EA0300C00F0C46009021F0004154
:1035400023F00045B8EB0200A94105D240462146D0
:1035500090461C460B46024623F00040104347D0DD
:10356000270DC7F30A00C3F30A510290401A0190D5
:1035700040286BDAC3F3130040F4801B0098924696
:1035800020B10023D2EB030A63EB0B0B01985946E1
:10359000C0F14002504600F084FA06460D465046FF
:1035A0005946019A00F09CFA10EB08006141002492
:1035B00087EA115284EAE7731A4340D0009A62B353
:1035C000019A012A4FEA075215DC001B61EB020148
:1035D0004FF0004202EA0752CDE90042001C41F5DB
:1035E000801132462B4600F0D3FA03B0BDE8F08FCD
:1035F00040462146F9E7001B61EB0201001C41F542
:10360000801300185B412018A2F5001747EB030157
:1036100040EAD570B6196D4111E06D084FEA3606E3
:1036200045EAC0754FEA0752001B61EB0201001C1E
:1036300041F5801149084FEA3000001951413246E6
:103640002B4603B0BDE8F04F00F093BA009801227A
:1036500040000023D0EB020263EBE07300982146A8
:103660004FEAE074B8EB000061EB0401E9E783F096
:1036700000435BE781F0004158E72DE9FE4F81EA06
:10368000030404F0004421F0004100944FF0000BCB
:1036900023F0004350EA01045ED052EA03045BD0F9
:1036A000C3F30A54C1F30A552C44A4F2F334019431
:1036B000A0FB0254C1F3130141F48011C3F31303BF
:1036C00043F4801301FB024400FB034E840A970A73
:1036D00044EA815447EA8357A4FB076802958D0AA0
:1036E00005FB07854FEA932C04FB0C542705029D2C
:1036F0004FEA065847EA1637B5EB08056EEB070C9C
:10370000870E920E47EA811742EA8312A7FB020155
:10371000B6EB0B0164EB00042B0D43EA0C335E188F
:1037200044EB1C50DA465146E7FB0201C5F3130493
:103730004FEA0B3343EA14534FEA0432019C43EA45
:103740000603A4F10C040294009CCDE900B400F03F
:103750001FFA03B0BDE8F08F00200146F9E72DE91C
:10376000F04D81EA030404F0004B21F000451446BB
:103770004FF0000A23F0004150EA050220D054EA3D
:1037800001021DD0C5F30A570246C5F31303C1F366
:103790001300C1F30A5640F4801543F48013A7EBDD
:1037A0000608101BD64608F2FD3873EB050002D35D
:1037B00008F1010801E092185B41B8F1000F03DA4B
:1037C00000200146BDE8F08D00204FF48011064630
:1037D00084460EE0171B73EB050705D3121B63EB42
:1037E000050306434CEA010C49084FEA30009218E1
:1037F0005B4150EA0107EDD152EA030012D082EAA0
:10380000040083EA0501084305D0101BAB4106D232
:103810000122002306E000224FF0004302E06FF097
:10382000010253101AEB06004CEB085110EB0A0092
:1038300041EB0B01BDE8F04D00F09BB9C10F80EAF0
:10384000E0700844CA079623002100F064B996236B
:103850000022114600F05FB90EB5C10F80EAE0709A
:103860000844CA07002140F233438DE80E000A469F
:103870000B4600F08DF903B000BD0EB540F23341A8
:1038800002910021CDE900110A460B4600F080F9B3
:1038900003B000BD00F0004220F00040C10DC0F3B5
:1038A000160040F400007F2901DA002070479629B5
:1038B00003DCC1F19601C84001E096398840002A36
:1038C000F4D04042704720F00040C10DC0F3160014
:1038D00040F400007F2901DA00207047962903DCBC
:1038E000C1F19601C840704796398840704770B55D
:1038F000C1F30A5201F000450024C1F3130140F264
:10390000FF3341F480119A4201DA002070BD40F289
:1039100033439A42A2F2334203DC524200F0D0F821
:1039200000E090402C43F1D0404270BD00F00042D6
:1039300030F000400AD0C10D01F56071C0F31600EF
:1039400042EA0151C2084007114370470020014676
:103950007047000030B5041E71F1000404DB4FF025
:103960000044404264EB0101141E73F1000405DBC6
:103970001C464FF00043524263EB04038B4208BFE6
:10398000824230BD30B5041E71F1000404DB4FF0FB
:103990000044404264EB0101141E73F1000405DB96
:1039A0001C464FF00043524263EB0403994208BFA8
:1039B000904230BD01F0004330B421F0004150EAA4
:1039C000010206D00A0DA2F56072C1F31301002AAC
:1039D00002DC30BC00207047440F44EAC104C1003F
:1039E000E01830BC00EBC25000F08CB8002801DBBE
:1039F000C0F10040002901DBC1F100418142704764
:103A0000002801DBC0F10040002901DBC1F10041C9
:103A10008842704730B50B46014600202022012421
:103A200009E021FA02F59D4205D303FA02F5491B8C
:103A300004FA02F52844151EA2F10102F1DC30BDA2
:103A40002DE9F05F0546002092469B4688460646D3
:103A5000814640241BE0284641464746224600F066
:103A60002FF853465A46C01A914110D311461846B2
:103A7000224600F016F82D1A67EB01084F46224641
:103A80000120002100F00DF817EB00094E41201E27
:103A9000A4F10104DFDC484631462A464346BDE82E
:103AA000F09F202A04DB203A00FA02F10020704740
:103AB0009140C2F1200320FA03F31943904070476C
:103AC000202A04DB203A21FA02F00021704721FA73
:103AD00002F3D040C2F120029140084319467047DA
:103AE000202A06DBCB17203A41FA02F043EAE073C2
:103AF00006E041FA02F3D040C2F1200291400843AF
:103B0000194670470029A8BF7047401C490008BFEC
:103B100020F00100704710B4B0FA80FC00FA0CF0FD
:103B200050EA010404BF10BC704749B1CCF1200435
:103B300021FA04F411FA0CF118BF012121430843C2
:103B4000A3EB0C01CB1D4FEA00614FEA102042BFEE
:103B5000002010BC704700EBC35010440029A4BFE4
:103B600010BC7047401C490008BF20F0010010BC89
:103B7000704710B5141E73F1000408DA401C41F1BF
:103B8000000192185B411A4301D120F0010010BDE1
:103B90002DE9F04D92469B4611B1B1FA81F202E057
:103BA000B0FA80F220329046FFF77BFF04460F46C2
:103BB00040EA0A0041EA0B0153465A46084313D033
:103BC000114653EA010019D0C8F140025046FFF7F0
:103BD00077FF05460E46504659464246FFF761FFBD
:103BE000084305D0012004E020463946BDE8F08DA9
:103BF0000020054346EAE0762C4337430A986305E4
:103C0000E40AA0EB08000022FD0A44EA47540A3007
:103C100002D500200146E9E7010510196941DDE9F7
:103C2000084500196941BDE8F04DA2E770B521F0E3
:103C3000004303430CD0C1F30A550024D5EB04051F
:103C400064EB0403D617AD1AB34102DB0020014632
:103C500070BD201841EB025170BDC1F30A52C1F38F
:103C6000130140F2FF3341F480119A4202DA00203E
:103C70000146704740F233439A42A2F2334202DCDB
:103C80005242FFF71DBFFFF70CBF0000064C074D67
:103C900006E0E06840F0010394E80700984710341C
:103CA000AC42F6D3FFF748FA241003084410030887
:103CB0002DE9F04D00231A461B1A8A4103DB002030
:103CC0000146BDE8F08DC1F30A52C1F3130141F47E
:103CD00080154FF0000BD10702D100186D41521E24
:103CE0000027044640F2FF11384601EB620A3E46C7
:103CF0008046024600204FF48011FFF7E1FEC21912
:103D00007141BB1846EB0100B4EB030C75EB000CE2
:103D100004D3E41A65EB000517460E46241908F192
:103D200001006D4180463428E3DDF91946EB0600B9
:103D3000091BA84103D24FF0FF32134601E00022D5
:103D400013461BEB070046EB0A51BDE8F04DFFF7A9
:103D500010BF70B58C1810F8015B15F0070301D186
:103D600010F8013B2A1106D110F8012B03E010F8DE
:103D7000016B01F8016B5B1EF9D12B0705D4002301
:103D8000521E0DD401F8013BFAE710F8013BCB1AA3
:103D9000921C03E013F8015B01F8015B521EF9D598
:103DA000A142D8D3002070BD10B5FFF7DFF904465B
:103DB00014480078401C134908702046FFF7DAF9D0
:103DC0004FF4A071104800F087F9012817D14FF483
:103DD000A0710D4800F041F90C210C4820F036FC90
:103DE00000BF0B48006800F4E0600A490843001D6A
:103DF00007490860BFF34F8F00BF00BFFEE719F00F
:103E000015F910BD2D000020002401409468002009
:103E10000CED00E00000FA0508B5012108461CF091
:103E20002FFB01214FF417701CF05AFB3F20ADF817
:103E3000000000208DF803006946124815F025F8AF
:103E40001220ADF8000069460F4815F01EF8012059
:103E5000ADF8000069460D4815F017F84FF4004022
:103E6000ADF8000010208DF8030002208DF802004C
:103E70006946074815F009F84FF40041044815F069
:103E8000EFF808BD0010014000080140000C01409F
:103E90000018014010B5FFF7BFFF00F00FF8202118
:103EA000044815F0DDF84FF40041034815F0D6F84A
:103EB00010BD0000000801400018014000B585B0A9
:103EC0000BF0C0FA0020009001208DF804000020C3
:103ED0008DF805004FF46020029000200390092027
:103EE0008DF810006946364800F074F90723012266
:103EF0000A21334800F096F9072302220B213048AB
:103F000000F090F9072303220C212D4800F08AF9D4
:103F1000072304220D212A4800F084F907230522F3
:103F20000E21274800F07EF9072306220F2124489E
:103F300000F078F907231A460121214800F072F9B0
:103F40000723082204211E4800F06CF907230922E8
:103F500008211B4800F066F9002240F6FF7118485E
:103F600000F078F80821164800F06CF8154914485C
:103F700000F05EF801224FF4A071114800F01EF924
:103F800001210F4800F079F801210D4800F06AF88E
:103F90000B4800F0A3F900BF094800F0AFF8002873
:103FA000FAD1074800F0C1F900BF054800F08AF8CF
:103FB0000028FAD10121024800F0ACF905B000BD9B
:103FC000002401400002800010B54FF40051144855
:103FD00015F02EF808B1012000E00020114908700A
:103FE0000846007860B91048007828B1002240F6F1
:103FF000FF710E4800F02EF800200B4908700DE00C
:1040000009480078012806D04FF4026240F6FF719B
:10401000064800F01FF801200349087010BD000099
:1040200000180140C9000020CA00002000240140FF
:104030000A4600214168024B194011434160704714
:10404000FFFD3FFF0A460021416821F01F01114397
:104050004160704741628262704700220A12D34376
:104060000360704721B1826842F00102826003E080
:10407000826822F001028260704721B1826842F4B6
:104080008072826003E0826822F4807282607047EE
:1040900010B503460024002200BF04E033F81200EC
:1040A0000444501CC2B28A42F8DBB4FBF1F010BDEC
:1040B00010B5002403E000F02BF8601CC4B2092CFA
:1040C000F9D310BD014600208A6802F004020AB14B
:1040D000012000E00020704770B502460020002358
:1040E00000240B125568CEB205EA060415681D407F
:1040F00015B10CB1012000E0002070BD0146002088
:104100008A6802F008020AB1012000E0002070472E
:104110001FB50121234800F0FDF800BF012019F070
:104120008DFC02200BF05AF90128F7D100240BE096
:104130001D4830F814001D4901EB04111C4A127887
:1041400021F81200601CC4B2092CF1D31848007881
:10415000401C1749087008460078082801D3002041
:10416000087000241BE00020009001900290039052
:104170000E4800EB041110226846FFF7A9F80D4B1A
:10418000022208216846FFF743F806210DF10200DC
:10419000FFF77EFF084921F81400601CC4B2092C07
:1041A000E1D31FBD00240140062600207625002013
:1041B000C8000020A17600086425002010B5002367
:1041C000CBB21AB144681C43446002E044689C438B
:1041D000446010BD30B502460020002350680F4CEB
:1041E00020400D790C6844EA052420435060906813
:1041F0000B4C2040D1E902542C434D7944EA45044C
:1042000020439060D06A20F470000C7C641EE4B2FD
:10421000234340EA0350D06230BD0000FFFEF0FFB0
:10422000FDF7F1FFF0B504460D4600200021092DF1
:1042300011DDE068A5F10A0606EB4607072606FA37
:1042400007F18843A5F10A0606EB460603FA06F1D4
:104250000843E0600CE0206905EB4507072606FAF5
:1042600007F1884305EB450603FA06F10843206190
:10427000072A0FDA606B561E06EB86071F2606FA22
:1042800007F18843561E06EB860605FA06F1084339
:10429000606322E00D2A0FDA206BD61F06EB86073B
:1042A0001F2606FA07F18843D61F06EB860605FA95
:1042B00006F10843206310E0E06AA2F10D0606EB68
:1042C00086071F2606FA07F18843A2F10D0606EBC2
:1042D000860605FA06F10843E062F0BD816841F008
:1042E000080181607047000010B500BFFFF7E0FED5
:1042F0000648008A40F67D01884206D24FF40051FC
:10430000034814F095FE0128F0D010BD642500206C
:104310000018014021B1826842F4A002826003E0EB
:10432000826822F4A00282607047816841F0040133
:104330008160704710B5044608490888FFF787FA7E
:10434000206006494888FFF782FA60600349088ABE
:10435000FFF77DFAC4F8800010BD0000642500203E
:104360002DE9F84F07460C4615464FF00008C146A8
:10437000C246A021684620F03BFC684620F03AFC8B
:1043800080462046E11704EB1161C1F30529E117CE
:1043900004EB11610912A4EB012101F0FF0A25B918
:1043A000684600BF0120BDE8F88F20F03BFB18B93C
:1043B000684600BF0020F6E7404620F0E5FB20F00D
:1043C00063FB28B920F002FB684600BF0020EAE743
:1043D000484620F0D9FB20F057FB504620F0D4FB94
:1043E00020F052FB20F01EFB48F0010020F0CCFB37
:1043F00020F04AFB002607E0B81920F08DFB0020D2
:1044000020F0B8FA701C86B2681EB042F4DC79194C
:10441000481E20F081FB012020F0ACFA20F0D6FAF3
:10442000684600BF0120BEE72DE9F84F07460C465D
:1044300016464FF00008C146C246A021684620F04B
:10444000D7FB684620F0D6FB80462046E11704EBF8
:104450001161C1F30529E11704EB11610912A4EB05
:10446000012101F0FF0A26B9684600BF0120BDE81E
:10447000F88F20F0D7FA18B9684600BF0020F6E799
:10448000404620F081FB20F0FFFA28B920F09EFA88
:10449000684600BF0020EAE7484620F075FB20F0A0
:1044A000F3FA504620F070FB20F0EEFA002506E00B
:1044B000785D20F069FB20F0E7FA681C85B2B54210
:1044C000F6DB20F083FA684600BF0120CFE700004A
:1044D00010B50446062C34D2DFE804F0030B131B9E
:1044E000232B1949087801232022282116F012F8DD
:1044F00028E01549487801232022302116F00AF8D7
:1045000020E01149887801232022402116F002F88A
:1045100018E00D49C87801232022482115F0FAFF40
:1045200010E00949087901232022582115F0F2FFF3
:1045300008E00549487901232022602115F0EAFFAF
:1045400000E000BF00BF10BD3106002010B50446DA
:1045500007480078FFF7BCFF012016F051FB20460A
:10456000FFF7B6FF002016F04BFB0148047010BDAA
:10457000370600202DE9F04704460E460027B846CE
:10458000B946BA4694F8F00308B9BDE8F08719F0C7
:10459000D3FA054606F1200104F1CC001EF010F814
:1045A000074606F1380104F1E4001EF009F88046E0
:1045B00006F1100104F114001AF0AEFB814606F179
:1045C000100104F114001AF0D7FA824694F8CC03D3
:1045D000012813D107F0010010B908F0010010B153
:1045E0001EF016F80AE009F0010010B11AF0BAFA4C
:1045F00004E00AF0010008B101F074F840F2CD3097
:10460000005D012813D107F0020010B908F0020084
:1046100010B11DF0F3FF0AE009F0020010B11AF02A
:1046200097FA04E00AF0020008B101F051F840F2F4
:10463000CE30005D012854D157480078002850D171
:1046400055484078012845D153488078012841D108
:104650005148C07801283DD107F0040060B14F48AF
:10466000007848B90022314620461CF03FFD4B49F6
:1046700008704B48056034E008F0040060B1494818
:10468000007848B90122314620461CF02FFD4549EB
:1046900008704548056024E009F0040058B143481B
:1046A000007840B9314620461CF008FD3F490870AB
:1046B0003F48056015E00AF0040090B13D480078DD
:1046C00078B9314620461CF0E1FC3A4908703A4876
:1046D000056006E005213948006815F059FD2E49AE
:1046E000087007F0040038B92C48007801280ED172
:1046F00000202A4908700AE028480078012806D1DD
:104700003A46274928461CF09FFC2449087008F0C7
:10471000040038B92348007801280ED1002021492F
:1047200008700AE01F480078012806D142461E4959
:1047300028461CF089FC1B49087009F0040038B9B0
:104740001A48007801280ED10020184908700AE0A4
:1047500016480078012806D14A46154928461CF01B
:1047600073FC124908700AF0040038B91148007847
:1047700001280ED100200F4908700AE00D4800788A
:10478000012806D152460C4928461CF05DFC094917
:10479000087000BFF9E60000FC040020AC00002017
:1047A000B0000020B4000020B8000020BC000020B1
:1047B000C0000020BD000020C4000020BC05002077
:1047C00010B50446062C34D2DFE804F0030B131BAB
:1047D000232B1949087801232022282115F09AFE5D
:1047E00028E01549487801232022302115F092FE57
:1047F00020E01149887801232022402115F08AFE0B
:1048000018E00D49C87801232022482115F082FEC6
:1048100010E00949087901232022582115F07AFE79
:1048200008E00549487901232022602115F072FE35
:1048300000E000BF00BF10BD3806002010B50446E0
:1048400007480078FFF7BCFF012016F0D9F9204691
:10485000FFF7B6FF002016F0D3F90148047010BD31
:104860003E060020427D022A12D14A89052A03DA37
:104870004A89521C4A810FE000224A81427D22F07F
:10488000020242750A7B012A06D100220A7303E064
:104890004A890AB100224A8170474A89521C4A81DA
:1048A0004A89CB899A4205DB00224A81427D42F047
:1048B000020242757047427D012A12D10A89052AF7
:1048C00003DA0A89521C0A810FE000220A81427D24
:1048D00022F0010242750A7B012A06D100220A73E6
:1048E00003E00A890AB100220A8170470A89521C32
:1048F0000A810A89CB899A4205DB00220A81427D1E
:1049000042F00102427570470248034908600348BB
:104910004860704721490008840000202D490008A4
:104920000148D0F8640370477470002070B50446E5
:104930002048D0F864030C2802D200BF002070BDCC
:104940001C48D0F86C63F11706EBD1214915A6EB92
:1049500041500C2114F038FA05461648D0F86C0383
:104960000C301449C1F86C030846D0F864030C38C5
:10497000C1F864034FF4FA61286801EB906020608D
:104980002868C0F3835020712868C0F344406071E8
:104990002868C0F30430A0712888C0F38510E07146
:1049A000287800F03F002072D5E90101C4E9030135
:1049B0000120C4E77470002007E0FFF705FBFFF754
:1049C000A7FB4FF47A7019F039F8F6E786B03DE0AE
:1049D00005AA00211E48006818F0C0FB04469DF897
:1049E000140078B94FF400411A4814F039FB2088BC
:1049F00019F024F84FF40041164814F02FFB60889A
:104A000019F01CF80120207169461148006818F05F
:104A100075FC05909DF81400C0B90D480068406809
:104A200000690B49096849684968884207D1002034
:104A3000074909684968896841F8040C06E00020C4
:104A4000034909684968096941F8040CC0E7000096
:104A5000C00500200008014008B50CE06A460021AE
:104A60000548006818F07AFB04469DF8000010B96C
:104A7000204600F04DFFF1E7C8050020002420E0AB
:104A800019F05AF80546284617F034FD284617F065
:104A90001FFC0C4840680078012802D016F0B6F8D8
:104AA00004462CB1284617F04BFD284617F05AFC57
:104AB000204617F05DFC642300221146104618F0D2
:104AC000F9FFDDE7CC64002006E00449044813F058
:104AD000D5FF0A2018F0B2FFF7E700002474002089
:104AE0004069002086B030E005AA00211748006820
:104AF00018F034FB04469DF8140020B9144A1549F7
:104B0000204614F035FF69461048006818F0F6FB9F
:104B100005909DF81400C0B90C4800684068006911
:104B20000A49096849684968884207D1002007494D
:104B300009684968896841F8040C06E000200349C7
:104B400009684968096941F8040CCDE7BC050020F3
:104B500074700020746800202021064814F07EFA4A
:104B600007E016F07DFC0A2300221146104618F0DB
:104B7000A1FFF6E70018014008B519E06A460021D8
:104B80000C48006818F0EAFA04469DF8000068B97D
:104B90001021094814F064FA208818F04FFF102102
:104BA000054814F05BFA608818F048FF0120207176
:104BB000E4E70000C40500200018014008B500200B
:104BC00018F024FC084908600CE06A4600210648F9
:104BD000006818F045FC9DF8000018B90349044826
:104BE0001AF096FCF1E70000AC05002024740020C8
:104BF000406900201CB54FF47A7018F01FFF10E0D8
:104C000001A800238222FF2100900648006818F0C6
:104C100007F8054905481DF097FB034903481BF0B9
:104C200014F8EDE7B00500207470002074680020CF
:104C3000764800F07BFD75481AF0CAF800F022F9BA
:104C4000002302221946184618F034FFDCE018F061
:104C500073FF04466E480068201A6E4988420ED3DE
:104C60006B48046018F082FB6B48007828B96748ED
:104C7000143806F0C1FD16F083F818F097FB67486A
:104C80000068201A4EF6602188421DD363480460F4
:104C900018F06CFB6248007850B96248007801282F
:104CA00002D161A01FF0AAFF0121FF2005F0D8FB6F
:104CB00059480078012805D15448143806F09CFD65
:104CC00016F05EF818F072FB61480068201A42F294
:104CD0001071884212D35E48046018F047FB4E48BA
:104CE000007848B901215B48006815F051FA0221AB
:104CF0005848006815F04CFA18F058FB5648006800
:104D0000201AB0F57A7F26D315F0C0FA16F01CF8F9
:104D10005148046051493D4814381DF095FD18F084
:104D200025FB4E49394814381DF0F4FC4B4910312D
:104D3000364819F07DFF49493448143814F00CFC0A
:104D400014F092F914F036FC1CF092F80420444957
:104D5000087018F02BFB43480068201AB0F5FA7F62
:104D600019D34048046018F001FB3F481CF0AAF832
:104D7000264914393C4802F0A7FC3B493B4816F051
:104D800001FC394807C800F0B3F8374807C81CF0E1
:104D900055F818F00BFB36480068201A64280AD32F
:104DA0003348046018F0E2FA2C4918481438FFF729
:104DB000E1FB18F0FBFA2F480068201A322820D3B4
:104DC00018F0D4FA2B480088201A81B2234800F04A
:104DD000DFFE28480460214910310C4819F0B6FF65
:104DE0001E491031094819F0F8FF1C4910310748D5
:104DF00019F0DCFE19491031044819F057FF18F07A
:104E0000D5FA0A2018F01AFE21E700008868002071
:104E1000E8050020E0930400CC640020E4050020B5
:104E200074040020A005002031A1A2BDABCFB5CDF8
:104E3000B3CBF9D3D0D0C5CFA2CDACB2BDB5BDC533
:104E4000E4D6C3B7FECEF1C6F7C9CF0A0000000012
:104E5000E0050020BC050020DC0500207470002067
:104E600008060020D8050020AC670020406C002018
:104E7000D4050020D005002003E04FF4FA7018F0AC
:104E8000DDFDFAE73EB568461CF01CF868461BF0ED
:104E900005FE0446144800680068A04204D8124881
:104EA00000684068A0421DD21048B4FBF0F100FB3E
:104EB000114504F56150401B0B49096808600A4818
:104EC00000680068094908440749096848600421E6
:104ED000054800681FF0BAFB042103480068001D64
:104EE0001FF0B4FB3EBD0000800000208051010097
:104EF00037B568461BF0D2FD05461548B5FBF0F105
:104F000000FB1154B4F5615F07D0124800680068D7
:104F1000E0B9104800684068C0B905F56150001B51
:104F20000C49096808600B48006800680849084493
:104F30000849096848600421064800681FF086FB9C
:104F4000042104480068001D1FF080FB3EBD0000E6
:104F5000805101008000002010B50446064800681A
:104F60000078A04207D0044800680470012102487C
:104F700000681FF06BFB10BD8C00002010B50024F2
:104F80001B48D0F81C47D0F81C17D0F82007081A87
:104F9000012806D01648D0F81C17D0F82007814207
:104FA00000D910BD632C00D900241148D0F8C413D7
:104FB00000F57F7040F82410014601EB84000421C5
:104FC0001FF044FB0A48D0F81C07401C0849C1F8F0
:104FD0001C07042107481FF039FB01210448C0F8D1
:104FE0002417042100F224701FF030FB00BFD8E723
:104FF000747000209077002010B500241B48D0F872
:105000002047D0F82017D0F81C07081A012806D02E
:105010001648D0F82017D0F81C07814200D910BDDF
:10502000632C00D900241148D0F8C41300F28C502E
:1050300040F82410014601EB840004211FF006FB18
:105040000A48D0F82007401C0849C1F8200704216D
:1050500007481FF0FBFA00210448C0F82417042178
:1050600000F224701FF0F2FA00BFD8E7747000203D
:105070009477002030B501460846CC1701EB147434
:105080002411A1EB04140A46CD1701EB15752D115F
:1050900005EB850504EB4504E3B2184630BD00007E
:1050A00010B503481BF03CFA0148406810BD0000F1
:1050B00094E0002010B516F0E9F91EF0CBFFFEF7E2
:1050C000E9FE16F0B7FDFFF71FFC16F0CBFC1BF056
:1050D0007FF915F033FD00F095FB19F0F9FD00F0B4
:1050E00011FC10BD2DE9F84F8246884616462D204A
:1050F00090FBF8F0C0B20090009808B9052000902D
:10510000082000900098C0F12D0000FB0AF01FFA63
:1051100080F9A8F1010099FBF0F01FFA80F909F07D
:10512000FF04B9F1000F00D103240025C2E0E2170B
:1051300004EB5272D210AA4227D0E21704EB52724B
:10514000D210521CAA4220D0102000EBC500C2B2DF
:105150003146002012F052FE17F0F8FB102000EB51
:10516000C500C2B2701CC1B2FF2012F047FE17F09A
:10517000EDFB102000EBC500C2B2B01CC1B2002094
:1051800012F03CFE17F0E2FB92E02746E11704EB39
:105190005171C910102303EBC101CAB2A346E11734
:1051A00004EB5171C910A4EBC101464B585C314668
:1051B00012F024FEE31704EB5373DB104FF0100CD6
:1051C0000CEBC303DAB2E31704EB5373DB10A4EB6D
:1051D000C303DFF8F0C01CF80330C3F1FF00731CF9
:1051E000D9B212F00BFEE31704EB5373DB104FF050
:1051F000100C0CEBC303DAB2E31704EB5373DB10B0
:10520000A4EBC303DFF8BCC01CF80300B31CD9B285
:1052100012F0F4FDE11704EB5171012202EBE10100
:10522000062945DAE11704EB5171C910491C102316
:1052300003EBC101CAB2E11704EB5171C910A4EB31
:10524000C101214B585C314612F0D8FDE31704EB45
:105250005373DB105B1C4FF0100C0CEBC303DAB282
:10526000E31704EB5373DB10A4EBC303DFF858C060
:105270001CF80330C3F1FF00731CD9B212F0BEFD5D
:10528000E31704EB5373DB105B1C4FF0100C0CEBBB
:10529000C303DAB2E31704EB5373DB10A4EBC303CD
:1052A000DFF824C01CF80300B31CD9B212F0A6FD2D
:1052B000681CC5B2062DFFF63AAF17F047FBBDE8F4
:1052C000F88F0000F6050020FF050020F8B5054620
:1052D0000E4617461C46012C0ED1012015F090FCFD
:1052E00000207C233A4631460090284615F0C2F94A
:1052F000002015F085FC07E000207C233A4631466B
:105300000090284615F0B6F9F8BD000070B52E489B
:105310000078032803D903202C49087003E02A48A9
:1053200000782A4908702A4800782A490978884272
:1053300006DB2748007827490978401AC4B208E0FC
:105340002448007822490978401A1F490978081A28
:10535000C4B200252BE01E480078844210D11D49BC
:105360000978102303EB0111CAB21B490968184BD5
:105370001B7851F8230001230021FFF7A7FF0BE062
:10538000102101EB0511CAB21349096851F8240034
:1053900000231946FFF79AFF0B480078401EA042F1
:1053A00001D1002401E0601CC4B2681CC5B20748EA
:1053B00000788542CFDB78237D22034801780448BA
:1053C0000078FFF78FFE70BD1E060020200600202B
:1053D0001D0600201F060020240600202DE9F041B4
:1053E00052480678007828B951480078401E4F4945
:1053F000087004E04D480078401E4C4908704D4844
:10540000007818B34B4909784A4B1B785B1E494F0B
:105410003B70102303EB0111CAB24749096851F8E8
:10542000260000231946FFF751FF3946097810235B
:1054300003EB0111CAB2404909683C4B1B7851F893
:10544000230001230021FFF741FF5CE0002E58D02C
:1054500037480078032835D93448057800241021CE
:1054600001EB04123449096851F825000123002199
:10547000FFF72CFF2E480078401EA84201D10025DE
:1054800001E0681CC5B2012416E0102101EB0411F3
:10549000CAB22949096851F8250000231946FFF7C7
:1054A00015FF23480078401EA84201D1002501E0E5
:1054B000681CC5B2601CC4B2032CE6D300201D4991
:1054C000087020E01A480078401E1A4908701A49EE
:1054D000096851F82600002310221946FFF7F6FE4E
:1054E00014490978102303EB0111CAB21249096863
:1054F0000E4B1B7851F8230001230021FFF7E6FE35
:1055000001E00A48067078237D220948017807489F
:105510000078FFF7E7FD09490978491E084A32F883
:105520001100002115F092FFBDE8F0811D0600205A
:105530001E0600201F060020240600200C06002066
:10554000A8E000202DE9F0415A4806785A48007832
:10555000401E58490978884203D1002055490870F7
:1055600004E054480078401C5249087053480078C1
:10557000401E53490978884223D051490978504B3D
:105580001B785B1C4E4F3B70102303EB0111CAB21A
:105590004C49096851F8260000231946FFF796FE8A
:1055A00039460978102303EB0111CAB2454909684D
:1055B000404B1B7851F8230001230021FFF786FEA2
:1055C00064E03D480078401EB0425DD03A48007823
:1055D000032836D9374804780325691E102303EBC6
:1055E0000111CAB23749096851F82400012300218A
:1055F000FFF76CFE24B930480078401EC4B201E0C9
:10560000601EC4B2022516E0691E102303EB0111CF
:10561000CAB22C49096851F8240000231946FFF743
:1056200055FE24B924480078401EC4B201E0601E33
:10563000C4B2681EC5B2002DE6DC02202049087005
:1056400024E000201E4908701B490978491E1023D8
:1056500003EB0111CAB21B49096851F82600002367
:105660001946FFF733FE16490978102303EB0111A1
:10567000CAB2144909680F4B1B7851F82300012363
:105680000021FFF723FE01E00A48067078237D22FF
:105690000948017807480078FFF724FD0A4909788E
:1056A000491E0A4A32F81100002115F0CFFEBDE86C
:1056B000F08100001D0600201E06002020060020AC
:1056C0001F060020240600200C060020A8E0002071
:1056D00010B503210248006815F0F6FE10BD000069
:1056E000C405002010B503210248006800F0B0F89E
:1056F00010BD0000C005002010B50A490A780978DD
:10570000491C084B1970084951F8220000226A21EF
:1057100015F02BF903480078042802DD0020014928
:10572000087010BDD200002020E60208002141715F
:1057300064218171002181727047000010B52F48EB
:10574000007D01280CD12D48407E10B9FFF7D4FF11
:1057500053E02B49002248696A2115F006F94CE014
:105760002648807E0A2806DA2549002208686A2130
:1057700015F0FBF841E02148807E0A280ADB1F482B
:10578000807E1E2806DA1E49002248686A2115F02C
:10579000ECF832E01948807E1E280ADB1748807E2C
:1057A000322806DA1649002288686A2115F0DDF8E9
:1057B00023E01248807E32280ADB1048807E46288B
:1057C00006DA0F490022C8686A2115F0CEF814E005
:1057D0000A48807E46280ADB0848807E642806DA6C
:1057E0000749002208696A2115F0BFF805E004495D
:1057F000002208696A2115F0B8F810BD746800200D
:1058000020E6020808B5012104201AF069FE4FF4D1
:105810000040ADF8000010208DF8030003208DF843
:1058200002006946044813F030FB4FF4004102487F
:1058300013F014FC08BD00000008014010B504215D
:105840000248006800F004F810BD0000C005002008
:105850002DE9F04385B006460D461DB9002005B080
:10586000BDE8F083012D01D1214C0AE0022D01D1C8
:10587000204C06E0032D01D11F4C02E0042D00D185
:105880001E4C207908B90020E9E76946304617F038
:1058900035FD0746EFB94FF000097068D0F8108069
:1058A00012E0D8F80000A04201D10020D7E708F1AB
:1058B000060870688068404502D17068D0F804809E
:1058C00009F101001FFA80F9BDF804004845E8DC41
:1058D00001E00020C3E7002020712146304617F088
:1058E000D1FC07460FB90120B9E70020B7E7000057
:1058F000580500205E050020640500206A05002090
:1059000000BFFEE710B520F081F920F059F910BD75
:1059100010B50446A07842286FD023DC342868D024
:1059200014DC0C286AD008DC0A2868D2DFE800F012
:10593000674067486767674CF1E230283CD0312800
:1059400046D032284DD0332859D14EE035380D2875
:10595000EBD2DFE800F055595D6169656D7554540F
:1059600054549800572878D00DDCA0F14700102837
:10597000DBD2DFE800F09094989CA0A4A8ACFF4490
:1059800044444444446A832873D008DC582868D0CF
:10599000592874D080286ED08128D5D19FE08428E2
:1059A0006AD0852869D0862868D08728CCD1DDE0E8
:1059B000204601F0C1FDE0E0204601F087FDDCE07B
:1059C000204601F01FFED8E0204601F033FDD4E070
:1059D000204601F039F86B481CF0E8FF13F0AAFDEF
:1059E000CBE0204601F004F8C7E0204601F03AF988
:1059F000C3E0204601F05EF8BFE048E0B2E0BAE064
:105A0000204600F0EBF9B8E0204600F01FFAB4E0C1
:105A1000204600F0CBFAB0E0204600F0FFFAACE000
:105A2000204600F09FFCA8E0204600F04BFCA4E0DC
:105A3000204600F079FB53482C3013F055FE9CE0D3
:105A4000204600F027FB98E007E0204600F09AFD92
:105A50004C482C3013F048FE8FE0204600F048FD03
:105A60008BE0204601F068FC46482C3013F03CFEE9
:105A700083E045E003E02EE055E058E06AE0204690
:105A800001F010FC79E0204600F050FE75E0204661
:105A900000F0C2FE71E0204601F030FB6DE02046D0
:105AA00001F07CFB69E0204600F0DCF865E0204670
:105AB00000F008F961E0204601F0F8F95DE02046C9
:105AC00001F026FA59E0204600F032FF55E020466A
:105AD00000F058FF51E0204600F0E0FC4DE00BF0F4
:105AE00033FC4FF40041284813F0B8FA204600F088
:105AF0004FF942E015F0D6FF204600F0E5F93CE012
:105B00006079012806D121490870204600F0B8FDCF
:105B100008E023E0607928B900201C49087020467D
:105B200000F01EFA29E0204600F0D0FD25E0607963
:105B3000012805D1FFF710FA204600F07BFD07E0B1
:105B4000607928B90020FFF707FA204600F0E2F953
:105B500013E00FE0204600F03FFB0EE0204601F08E
:105B600017FA0AE0204601F063F906E0204600F04B
:105B70005DFB02E001E000BF00BF00BF204601F076
:105B800033FC10BD7468002000080140F1070020BC
:105B9000B0F98223002A17DD40F28232125A521ADB
:105BA00013B240F282321352B0F98223002A09DC88
:105BB000002280F88023002340F281321354521CCB
:105BC000135202E000BF00E000BF704710B5002490
:105BD000072200211B481BF0B1F81A4880791628CB
:105BE0002EDD1848807935282ADA1648407900F0E9
:105BF0001F00012824DB1348407900F01F00132800
:105C00001EDA1048007900F03F00012818DB0D482B
:105C1000007900F03F00322812DA0A48807800F05C
:105C20003F0024280CDA0748407800F07F00602805
:105C300006DA0448007800F07F00602800DA0124CA
:105C4000204610BD3825002010B504460020044928
:105C5000088040F6C4112046FDF753FB10BD00003C
:105C6000F207002010B592B004463C208DF80400E5
:105C700060788DF8050049208DF80600FF208DF82A
:105C8000070002208DF808000C48C08D01128DF825
:105C90000A100A4890F82E008DF8090066218DF848
:105CA0000B1001A801F0A7FB8DF80C00092201A937
:105CB00003481EF08AFB12B010BD00007470002073
:105CC0000038014070B592B004466179A07901EBCB
:105CD000002616B1B6F5616F1FD93C208DF804007F
:105CE00060788DF805004A208DF80600FF208DF8B9
:105CF000070002208DF80800AA208DF8090066210F
:105D00008DF80A1001A801F076FB8DF80B0008222F
:105D100001A91D481EF059FB34E0002511E005EBF8
:105D200045021A4800EBC200C68105EB450217493F
:105D300001EBC20101F10E0002211EF087FC681C7C
:105D4000C5B2022DEBD33C208DF8040060788DF8AD
:105D500005004A208DF80600FF208DF8070002207C
:105D60008DF8080055208DF8090066218DF80A107D
:105D700001A801F040FB8DF80B00082201A90248A0
:105D80001EF023FB12B070BD00380140947000205B
:105D900010B592B004463C208DF8040060788DF870
:105DA000050081208DF80600FF208DF807000120F6
:105DB0008DF8080055208DF8090066218DF80A102D
:105DC00001A801F018FB8DF80B00082201A9024878
:105DD0001EF0FBFA12B010BD0038014010B592B0B1
:105DE00004463C208DF8040060788DF805003520CD
:105DF0008DF80600FF208DF807001248FDF7AAFA7B
:105E0000C0B28DF808009DF808200E490DF1090078
:105E1000FDF75EFA66219DF808200DF10900815416
:105E200001A801F0E8FA9DF808200DF109011144DC
:105E300048709DF80800C21D01A903481EF0C5FA6C
:105E400012B010BD447400200038014010B592B06B
:105E500004461B48002101624162816220790928C1
:105E600001D9092000E020790246611D1448203044
:105E7000FDF72EFA0C21124820301EF0E7FB3C20E3
:105E80008DF8040060788DF8050036208DF8060046
:105E9000FF208DF8070001208DF8080055208DF8AF
:105EA000090066218DF80A1001A801F0A4FA8DF806
:105EB0000B00082201A903481EF087FA12B010BD9A
:105EC000247400200038014010B592B004463C20F4
:105ED0008DF8040060788DF8050009208DF8060023
:105EE000FF208DF8070001208DF8080055208DF85F
:105EF000090066218DF80A1001A801F07CFA8DF8DE
:105F00000B00082201A902481EF05FFA12B010BD72
:105F10000038014010B592B004463C208DF80400D2
:105F200060788DF8050085208DF80600FF208DF83B
:105F3000070001208DF8080055208DF80900662122
:105F40008DF80A1001A801F056FA8DF80B0008220E
:105F500001A902481EF039FA12B010BD0038014004
:105F600010B592B004463C208DF8040060788DF89E
:105F7000050083208DF80600FF208DF80700012022
:105F80008DF8080055208DF8090066218DF80A105B
:105F900001A801F030FA8DF80B00082201A902488F
:105FA0001EF013FA12B010BD0038014010B592B0C7
:105FB00004463C208DF8040060788DF805003720F9
:105FC0008DF80600FF208DF807001248FDF7C2F992
:105FD000C0B28DF808009DF808200E490DF10900A7
:105FE000FDF776F966219DF808200DF1090081542E
:105FF00001A801F000FA9DF808200DF109011144F3
:1060000048709DF80800C21D01A903481EF0DDF983
:1060100012B010BD507400200038014010B592B08D
:10602000044620211948FDF76CF920791F2801D971
:106030001F2000E020790246611D1448FDF748F951
:10604000202112481EF002FB3C208DF804006078ED
:106050008DF8050038208DF80600FF208DF8070028
:1060600001208DF8080055208DF8090066218DF873
:106070000A1001A801F0BFF98DF80B00082201A950
:1060800003481EF0A2F912B010BD000050740020A9
:106090000038014070B592B004460DF10905442165
:1060A00001A8FDF72EF91E48FDF754F906461F2EEC
:1060B00000D91F263C208DF8040060788DF805007B
:1060C0003C208DF80600E0788DF8070026208DF83A
:1060D000080013482C38C06C286011482C38B0F8E0
:1060E0005000A88032460E49A81DFDF7F1F8662140
:1060F0009DF808200DF10900815401A801F07BF9F9
:106100009DF80810491C0DF1090250549DF8080033
:10611000C21D01A903481EF058F912B070BD00005D
:10612000A068002000380140F0B591B00446651D1C
:10613000012737B1A81DFDF70DF906461F2E00D91E
:106140000027012F1ED122482968C164A988A0F820
:10615000501020212C30FDF7D4F83246A91D1C48E0
:106160002C30FDF7B5F8042119484C301EF06EFABA
:106170000221174850301EF069FA202114482C30B3
:106180001EF064FA3C208DF8000060788DF8010064
:106190003B208DF80200E0788DF8030001208DF897
:1061A0000400012F01D1552000E0AA208DF8050040
:1061B00066218DF80610684601F01DF98DF807007C
:1061C0000822694603481EF000F911B0F0BD000036
:1061D000746800200038014010B592B004463C209D
:1061E0008DF8040060788DF8050086208DF8060093
:1061F000FF208DF8070001208DF80800094800688D
:1062000000788DF8090066218DF80A1001A801F0C8
:10621000F2F88DF80B00082201A903481EF0D5F80A
:1062200012B010BD780400200038014010B592B0C3
:1062300004466079012821D13C208DF80400607863
:106240008DF8050087208DF80600FF208DF80700E7
:1062500001208DF8080055208DF8090066218DF881
:106260000A1001A801F0C7F88DF80B00082201A957
:1062700013481EF0AAF814F0DDFF1EE03C208DF854
:10628000040060788DF8050087208DF80600FF2057
:106290008DF8070001208DF80800AA208DF809006C
:1062A00066218DF80A1001A801F0A5F88DF80B0001
:1062B000082201A902481EF088F812B010BD0000A3
:1062C0000038014030B591B004460125E178491EFF
:1062D000C8B215F04BF90546012D02D1207900B165
:1062E00000253C208DF8000060788DF801003920F1
:1062F0008DF80200E0788DF80300012D18D10820F8
:106300008DF80400E078401E00EB4001134800EBDC
:10631000C1000169CDF805104069CDF8090066217A
:106320008DF80D10684601F066F88DF80E000DE04E
:1063300001208DF80400AA208DF8050066218DF853
:106340000610684601F057F88DF806000F226946DE
:1063500003481EF03AF811B030BD000094700020E0
:1063600000380140F0B591B004460125661D371D87
:10637000E178491EC8B215F0F9F80546012D03D1A0
:106380002079082800D00025012D04D13968306813
:10639000FDF72CFB09D33C493068FDF731FB04D3F2
:1063A0003A493868FDF722FB01D2002518E0E2786F
:1063B000521E02EB4203364A02EBC3029168386870
:1063C000FDF71EFB0BD3E278521E02EB4203304A6C
:1063D00002EBC302D1683068FDF708FB00D200254C
:1063E000012D2BD1E078401E00EB4001294800EB45
:1063F000C100D4F805100161E078401E00EB4001B7
:10640000244800EBC101D4F809004861E178491E35
:1064100001EB41021F4901EBC20101F1100004210F
:106420001EF014F9E178491E01EB4102194901EB14
:10643000C20101F1140004211EF008F93C208DF87E
:10644000000060788DF801003A208DF80200E078B5
:106450008DF8030001208DF80400012D01D1552095
:1064600000E0AA208DF8050066218DF80610684628
:1064700000F0C1FF8DF807000822694606481DF0AC
:10648000A4FF11B0F0BD000000007A4400007AC4FF
:1064900040690020947000200038014010B592B08F
:1064A00004463C208DF8040060788DF805008020BB
:1064B0008DF80600FF208DF8070001208DF80800F8
:1064C000094800788DF8090066218DF80A1001A8A6
:1064D00000F091FF8DF80B00082201A903481DF080
:1064E00074FF12B010BD0000F40400200038014019
:1064F00070B592B004460DF10905442101A8FCF7DE
:1065000000FF1E48FCF726FF06461F2E00D91F2657
:106510003C208DF8040060788DF8050057208DF838
:106520000600E0788DF8070026208DF80800134853
:106530005438406F286011485438B0F87800A8806B
:1065400032460E49A81DFCF7C3FE66219DF80820BF
:106550000DF10900815401A800F04DFF9DF80810CD
:10656000491C0DF1090250549DF80800C21D01A9F3
:1065700003481DF02AFF12B070BD0000C86800205B
:1065800000380140F0B591B00446651D012737B1D0
:10659000A81DFCF7DFFE06461F2E00D90027012F9D
:1065A0001ED1224829684167A988A0F878102021C7
:1065B0005430FCF7A6FE3246A91D1C485430FCF7A7
:1065C00087FE0421194874301EF040F80221174854
:1065D00078301EF03BF82021144854301EF036F875
:1065E0003C208DF8000060788DF8010056208DF871
:1065F0000200E0788DF8030001208DF80400012FDF
:1066000001D1552000E0AA208DF8050066218DF803
:106610000610684600F0EFFE8DF807000822694674
:1066200003481DF0D2FE11B0F0BD000074680020D8
:106630000038014010B592B004463C208DF80400AB
:1066400060788DF8050085208DF80600FF208DF814
:10665000070001208DF8080055208DF809006621FB
:106660008DF80A1001A800F0C6FE8DF80B00082274
:1066700001A902481DF0A9FE12B010BD003801406A
:1066800010B592B004463C208DF8040060788DF877
:10669000050083208DF80600FF208DF807000120FB
:1066A0008DF8080055208DF8090066218DF80A1034
:1066B00001A800F0A0FE8DF80B00082201A90248F5
:1066C0001DF083FE12B010BD0038014010B592B02D
:1066D00004463C208DF8040060788DF80500842085
:1066E0008DF80600FF208DF8070002208DF80800C5
:1066F0000C48006800788DF809000A480068817924
:106700008DF80A1066218DF80B1001A800F073FEB9
:106710008DF80C00092201A903481DF056FE12B0A5
:1067200010BD00007C0400200038014030B591B05D
:106730000546E978364800EBC100A0F108043C208A
:106740008DF8000068788DF8010041208DF8020076
:10675000E8788DF803000F208DF80400207800F011
:106760000F0030308DF805002078C0F30310303072
:106770008DF806002088C0F3032030308DF8070024
:106780002088C0F3033030308DF808002068C0F353
:10679000034030308DF809002068C0F303503030DA
:1067A0008DF80A002068C0F3036030308DF80B00CC
:1067B0003021206801EB10718DF80C10207900F069
:1067C0000F0030308DF80D002079C0F30310303009
:1067D0008DF80E00A088C0F3032030308DF80F0034
:1067E00000218DF810108DF811108DF812108DF811
:1067F000131066218DF81410684600F0FCFD8DF82A
:1068000015001622694603481DF0DFFD11B030BDAA
:10681000186900200038014030B591B00546E9788C
:10682000414800EBC100A0F1080428790B285AD197
:106830006879216860F303012160A879216860F319
:1068400007112160E879216860F30B212160287A23
:10685000216860F30F312160687A216860F3134189
:106860002160A87A216860F317512160E87A2168D5
:1068700060F31B612160287B216860F31F71216038
:10688000687B616860F303016160A87B616860F305
:1068900007116160E87B616860F30B21616008218A
:1068A00020461DF0D3FE3C208DF8000068788DF85E
:1068B000010042208DF80200E8788DF803000120E5
:1068C0008DF8040055208DF8050066218DF806101E
:1068D000684600F090FD8DF80700082269461348CD
:1068E0001DF073FD1EE03C208DF8000068788DF8E7
:1068F000010042208DF80200E8788DF803000120A5
:106900008DF80400AA208DF8050066218DF8061088
:10691000684600F070FD8DF80700082269460348BC
:106920001DF053FD11B030BD186900200038014042
:1069300010B592B004463C208DF8040060788DF8C4
:1069400005004D208DF80600FF208DF8070001207E
:106950008DF80800094890F8CE038DF809006621EB
:106960008DF80A1001A800F046FD8DF80B000822F2
:1069700001A903481DF029FD12B010BD7468002064
:106980000038014010B592B004466079012801D06A
:10699000607938BB6179144880F8CE13012100F288
:1069A000CE301DF053FE3C208DF8040060788DF849
:1069B00005004E208DF80600FF208DF8070001200D
:1069C0008DF8080055208DF8090066218DF80A1011
:1069D00001A800F010FD8DF80B00082201A9034862
:1069E0001DF0F3FC12B010BD7468002000380140A7
:1069F00010B592B004463C208DF8040060788DF804
:106A0000050032208DF80600FF208DF807000620D3
:106A10008DF808000A480168CDF809104068CDF8E3
:106A20000D0066218DF80F1001A800F0E4FC8DF830
:106A300010000D2201A903481DF0C7FC12B010BDC3
:106A4000746800200038014010B592B00446601D03
:106A500012F0ECF91548D4F805100160D4F80910CB
:106A6000416008211DF0F2FD3C208DF804006078A3
:106A70008DF8050031208DF80600FF208DF8070005
:106A800001208DF8080055208DF8090066218DF849
:106A90000A1001A800F0AFFC8DF80B00082201A934
:106AA00003481DF092FC12B010BD00007468002075
:106AB0000038014010B596B00446E078401E10B191
:106AC000012802D100E003E002E000BF16B010BDD3
:106AD00000BF14216846FCF714FC3C208DF814001C
:106AE00060788DF8150034208DF81600E0788DF868
:106AF000170014208DF81800E078401E00EB4001CC
:106B0000564850F831000190E078401E00EB4001FB
:106B1000524800EBC10000798DF80800E078401E73
:106B200000EB40014D4800EBC10041798DF80910A0
:106B3000E078401E00EB4001484800EBC10081793D
:106B40008DF80A10E078401E00EB4001434800EB4E
:106B5000C100C1798DF80B10E078401E00EB4001B8
:106B60003E4800EBC10080680390E078401E00EBD7
:106B700040013A4800EBC100C0680490E078401E34
:106B800000EB4001354800EBC100017C009861F347
:106B900007000090E078401E00EB40012F4800EB1A
:106BA000C100407C012801D1012100E000210098B2
:106BB00061F308200090E078401E00EB4001274878
:106BC00000EBC100807C012801D1012100E00021FF
:106BD000009861F349200090E078401E00EB4001EE
:106BE0001E4800EBC100C07C012801D1012100E05A
:106BF0000021009861F38A200090E078401E00EBAD
:106C00004001164800EBC100007D012801D101219F
:106C100000E00021009861F3CB200090E078401E56
:106C200000EB40010D4800EBC100417D009861F38D
:106C300011400090142269460DF11900FCF748FB41
:106C4000662105A8417600F0D6FB05A988761B22AF
:106C500003481DF0BAFB00BF38E700004069002080
:106C60000038014030B597B00446E078401E10B1BE
:106C7000012802D100E003E002E000BF17B030BD00
:106C800000BF142101A8FCF73CFB1422611D01A8E0
:106C9000FCF71EFBE078401E00EB400261480299C1
:106CA00040F832109DF80C10E078401E00EB4002D6
:106CB0005C4800EBC20001719DF80D10E078401EA9
:106CC00000EB4002574800EBC20041719DF80E10E6
:106CD000E078401E00EB4002524800EBC200817198
:106CE0009DF80F10E078401E00EB40024D4800EB8D
:106CF000C200C171E078401E00EB4002494800EB41
:106D0000C20004998160E078401E00EB40024548D3
:106D100000EBC2000599C1600198C1B2E078401E45
:106D200000EB40023F4800EBC20001740198C0F341
:106D3000002080F0010080F00101E078401E00EBAF
:106D40004002384800EBC20041740198C0F3402073
:106D500080F0010080F00101E078401E00EB40026D
:106D6000304800EBC20081740198C0F3802080F0AD
:106D7000010080F00101E078401E00EB400229484C
:106D800000EBC200C1740198C0F3C02080F0010084
:106D900080F00101E078401E00EB4002214800EB4A
:106DA000C20001750021E078401E00EB40021D4842
:106DB00000EBC2004175E178491E01EB410219491F
:106DC00001EBC20018211DF041FCE078401E00EBF1
:106DD0004001154800EBC105002028816881287317
:106DE0003C208DF8180060788DF8190033208DF85C
:106DF0001A00E0788DF81B0001208DF81C0055204A
:106E00008DF81D0066218DF81E1006A800F0F3FA1B
:106E10008DF81F00082206A904481DF0D6FA00BF0D
:106E20002CE70000406900209470002000380140E9
:106E300010B592B00446E078AA2833D13C208DF8F2
:106E4000040001208DF805000C208DF80600AA2012
:106E50008DF8070008208DF8080032218DF80D10FC
:106E60002E218DF80E1031218DF80F1035218DF85F
:106E7000101031208DF809002E218DF80A103321D1
:106E80008DF80B1031218DF80C1066218DF8111042
:106E900001A800F0B0FA8DF812000F2201A90248F3
:106EA0001DF093FA12B010BD0038014010B592B039
:106EB00004463C208DF8040060788DF805004B20D6
:106EC0008DF80600FF208DF8070001208DF80800DE
:106ED0000D4890F8CC0328B10B4890F8CD0308B1C9
:106EE000012000E000208DF8090066218DF80A10CD
:106EF00001A800F080FA8DF80B00082201A90348D0
:106F00001DF063FA12B010BD746800200038014013
:106F100010B592B004466079012801D0607978BB41
:106F20006079184981F8CC036179164880F8CD134F
:106F3000012100F573701DF089FB012112481DF03D
:106F400085FB3C208DF8040060788DF805004C200E
:106F50008DF80600FF208DF8070001208DF808004D
:106F600055208DF8090066218DF80A1001A800F05F
:106F700042FA8DF80B00082201A904481DF025FAF9
:106F800012B010BD74680020416C00200038014030
:106F900010B592B00446E078BB285CD16079172820
:106FA00059DB6079342856DCA079012853DBA079BD
:106FB000122850DCE07901284DDBE07931284ADCE9
:106FC000207A002847DD207A232844DC607A0028D4
:106FD00041DD607A59283EDCA07A00283BDDE0796B
:106FE000592838DC607900F5FA6041490860A079D9
:106FF0000871E0794871207A8871607AC871A07A46
:107000000872012019F062FE39481DF04BFC384827
:10701000008881B23748C18435480179354880F805
:10702000251033484179334880F82410304881795D
:10703000304880F822102E48C1792E4880F821105F
:107040002B48007A2B4981F820000C212948203058
:107050001DF0FCFA4AE0E078CC2847D13C208DF8BE
:10706000040001208DF8050008208DF80600FF209F
:107070008DF8070006208DF808001E4991F82610AB
:107080003039C8B213F029FE8DF80900194991F87A
:10709000250013F022FE8DF80A00164991F824000D
:1070A00013F01BFE8DF80B00124991F8220013F02B
:1070B00014FE8DF80C000F4991F8210013F00DFE1D
:1070C0008DF80D000B4991F8200013F006FE8DF8A5
:1070D0000E0066218DF80F1001A800F08CF98DF8D4
:1070E00010000D2201A904481DF06FF912B010BD67
:1070F000503400207468002000380140F0B591B091
:1071000004462348D0F8E4033C21B0FBF1F72148C2
:10711000D0F8C803B0FBF1F61D48D0F8E003B0FB8F
:10712000F1F53C208DF8000060788DF801004720D3
:107130008DF80200FF208DF8030008208DF8040070
:1071400078208DF8050000218DF80610F9B28DF831
:107150000710390A8DF80810F1B28DF80910310ABC
:107160008DF80A10E9B28DF80B10290A8DF80C1071
:1071700066218DF80D10684600F03DF98DF80E007F
:107180000F22694604481DF020F911B0F0BD00003F
:10719000746800207470002000380140F0B591B090
:1071A0000446617AA07A01EB0020C0EB0010850054
:1071B000E17A207B01EB0020C0EB00108600E17932
:1071C000207A01EB0020C0EB0010870055B1B5F527
:1071D000803F07D237B1B7F5803F03D216B1B6F57D
:1071E000803F1FD33C208DF8000060788DF80100AF
:1071F00048208DF80200FF208DF8030000208DF854
:107200000400AA208DF8050066218DF80610684656
:1072100000F0F1F88DF80700082269461E481DF0BD
:10722000D4F836E01D48C0F8C853042100F5727048
:107230001DF00CFA1A48C0F8E473042100F57970C7
:107240001DF004FA1648C0F8E063042100F57870D8
:107250001DF0FCF93C208DF8000060788DF80100ED
:1072600048208DF80200FF208DF8030001208DF8E2
:10727000040055208DF8050066218DF8061068463B
:1072800000F0B9F88DF807000822694602481DF0A1
:107290009CF811B0F0BD000000380140747000206F
:1072A0007468002070B592B004460DF109054421C0
:1072B00001A8FCF726F81E48FCF74CF806461F2EDE
:1072C00000D91F263C208DF8040060788DF8050059
:1072D00059208DF80600E0788DF8070026208DF8FB
:1072E000080013487C38D0F89C00286010487C388F
:1072F000B0F8A000A88032460D49A81DFBF7E8FFB2
:1073000066219DF808200DF10900815401A800F0C4
:1073100072F89DF80810491C0DF1090250549DF8AF
:107320000800C21D01A903481DF04FF812B070BD3E
:10733000F068002000380140F0B591B00446651DAA
:10734000012737B1A81DFCF705F806461F2E00D906
:107350000027012F1FD122482968C0F89C10A98856
:10736000A0F8A01020217C30FBF7CBFF3246A91DEE
:107370001B487C30FBF7ACFF042119489C301DF002
:1073800065F902211648A0301DF060F9202114484B
:107390007C301DF05BF93C208DF8000060788DF8A2
:1073A000010058208DF80200E0788DF803000120DC
:1073B0008DF80400012F01D1552000E0AA208DF89E
:1073C000050066218DF80610684600F014F88DF867
:1073D00007000822694603481CF0F7FF11B0F0BD12
:1073E000746800200038014010B50446432120464F
:1073F000FBF787FF10BD014600200B780344D8B28D
:107400004B780344D8B28B780344D8B2CB7803448A
:10741000D8B20B790344D8B2002205E04B1D9B5C27
:107420000344D8B2531CDAB20B795B1C9342F5DCEF
:107430007047000070B592B00446E07810B10128A2
:1074400009D103E01F4D05F5007607E01D4D10350D
:1074500005F5007602E000BF12B070BD00BF3C2011
:107460008DF8040060788DF8050007208DF806007F
:10747000E0788DF8070020208DF8080010223146B2
:107480000DF10900FBF724FF102229460DF1190028
:10749000FBF71EFF66219DF808200DF109008154BD
:1074A00001A8FFF7A8FF01469DF80800401C0DF158
:1074B00009021154272201A903481CF086FF00BFCE
:1074C000CAE70000706C00200038014030B591B070
:1074D00004463C208DF8000060788DF801003020D3
:1074E0008DF80200E0788DF8030004208DF8040088
:1074F000E07810B1012806D102E00D48056A05E0E8
:107500000B48856B02E000BF11B030BD00BFCDF865
:10751000055066218DF809106846FFF76CFF8DF85D
:107520000A000B22694603481CF04FFF00BFEBE73F
:10753000747000200038014030B591B004463C2002
:107540008DF8000060788DF8010001208DF80200B0
:10755000E0788DF8030004208DF80400E07810B185
:10756000012806D102E00D48456A05E00B48C56BCD
:1075700002E000BF11B030BD00BFCDF8055066215C
:107580008DF809106846FFF736FF8DF80A000B22C8
:10759000694603481CF019FF00BFEBE77470002038
:1075A0000038014030B585B005466946134800688B
:1075B00015F0A4FE0446F4B9BDF80400092819DA50
:1075C000BDF8041001EB410202EB81110C4A88184E
:1075D00043222946FBF77CFEBDF8040000EB400285
:1075E00002EB8010064A81180448006815F04AFE34
:1075F000044600E000BF05B030BD0000C805002013
:10760000F431002070B592B00446E07810B1012842
:1076100009D103E0204D05F5007607E01E4D103539
:1076200005F5007602E000BF12B070BD00BF102269
:10763000611D3046FBF74CFE102204F1150128466F
:10764000FBF746FE102128461DF000F810213046B9
:107650001CF0FCFF3C208DF8040060788DF80500DC
:1076600003208DF80600E0788DF8070001208DF8E2
:10767000080055208DF8090066218DF80A1001A830
:10768000FFF7B9FE8DF80B00082201A903481CF092
:107690009CFE00BFC8E70000706C0020003801406D
:1076A000024608881388984201DD012070474FF098
:1076B000FF30FBE7024608881388984201DD01206D
:1076C00070474FF0FF30FBE738B504460D46217A8E
:1076D000009861F305000090E179009861F38B1048
:1076E0000090A179009861F31030009061790098C2
:1076F00061F3554000902179009861F39950009012
:107700002078A0F5FA60009960F39F6100912088CD
:10771000E884217925204155617924204155A179BA
:1077200022204155E17921204155207A85F8200019
:1077300068461AF003FE38BD01B584B000200390FE
:107740000822FE480499FBF70CFE38B1039840F07C
:1077500001000390F949049805C805C10422049961
:107760000C31F6480C30FBF7FCFD38B1039840F0C3
:1077700001000390F1490498C068C860042204998C
:107780000831EE480830FBF7ECFD38B1039840F0C3
:1077900001000390E949049880688860E748817C8B
:1077A0000498407D814205D1E448817C0498807D25
:1077B000814210D0039840F0020003900498407D6D
:1077C00030B90498807D18B90021DC48817402E04A
:1077D0000121DA488174D948C17C0498C07D814276
:1077E0000DD0039840F0020003900498C07D18B9B2
:1077F0000021D248C17402E00121D048C174CF48B1
:10780000407D012800D000BFCC48817D0498C07E17
:10781000814205D1C948817D0498007F814210D002
:10782000039840F0020003900498C07E30B9049899
:10783000007F18B90021C148817502E00121BF48CD
:107840008175BE48C17D0498407F81420DD0039868
:1078500040F0020003900498407F18B90021B74817
:10786000C17502E00121B548C175B448017E049894
:1078700090F8DC00814208D0039840F005000390A6
:10788000049890F8DC00AD490876049890F8DC0084
:1078900000287CD0A948817E049890F8DE008142BF
:1078A00006D1A648817E049890F8DF00814214D06A
:1078B000039840F005000390049890F8DE0001283A
:1078C00008D1049890F8DF00012803D101219B48DA
:1078D000817602E00021994881769848C17E04981B
:1078E00090F8E000814208D0039840F00500039032
:1078F000049890F8E0109148C1760422049800F1B1
:10790000D0018E481C30FBF72CFD40B1039840F0AD
:107910000500039089490498D0F8D000C8618748D1
:10792000016A0498D0F8CC00814208D0039840F056
:107930000500039081490498D0F8CC0008620498AF
:10794000D0F8D40002907D48406A01900299FCF77B
:107950004DF808D0039840F0050003900498D0F843
:10796000D410764841620498D0F8D8000290734849
:10797000806A01900299FCF739F808D0039840F02A
:10798000050003900498D0F8D8106C4881626B48C9
:1079900090F82C10049890F8F400814209D00398D4
:1079A00040F005000390049890F8F410634880F8C4
:1079B0002C10049890F8F40000287DD05F4890F8CF
:1079C0002E10049890F8F600814207D15B4890F899
:1079D0002E10049890F8F700814223D0039840F0CD
:1079E00005000390049890F8F60040B9049890F8C8
:1079F000F70020B90021514880F82E1012E00498B9
:107A000090F8F600012809D1049890F8F7000128B1
:107A100004D10121494880F82E1003E00021474895
:107A200080F82E10454890F82F10049890F8F80030
:107A3000814209D0039840F005000390049890F823
:107A4000F8103E4880F82F100422049800F1E80155
:107A50003A483030FBF785FC48B1039840F0050008
:107A6000039036492C310498D0F8E8004860334838
:107A7000416B0498D0F8E400814209D0039840F0AB
:107A8000050003902D492C310498D0F8E40088605B
:107A90000498D0F8EC0002902848806B019002997D
:107AA000FBF7A4FF0AD0039840F005000390049868
:107AB000D0F8EC10214800E014E081630498D0F87D
:107AC000F00002901D48C06B01900299FBF78EFFF9
:107AD00008D0039840F0050003900498D0F8F01007
:107AE0001648C163154890F84010049890F80C01AE
:107AF000814209D0039840F005000390049890F863
:107B00000C110E4880F84010049890F80C010028E1
:107B10007ED00A4890F84210049890F80E018142F5
:107B200007D1064890F84210049890F80F0181425E
:107B300019D0039840F00500039001E0D400002024
:107B4000049890F80E01012809D1049890F80F01CB
:107B5000012804D10121FB4880F8421003E00021F4
:107B6000F84880F84210F74890F84310049890F8CD
:107B70001001814209D0039840F005000390049859
:107B800090F81011EF4880F843100422049800F593
:107B90008071EC484430FBF7E4FB48B1039840F0B7
:107BA00005000390E74940310498D0F8000148608F
:107BB000E448816C0498D0F8FC00814209D0039815
:107BC00040F005000390DF4940310498D0F8FC00F4
:107BD00088600498D0F804010290DA48C06C0190E3
:107BE0000299FBF703FF08D0039840F005000390CB
:107BF0000498D0F80411D348C1640498D0F808015F
:107C00000290D048006D01900299FBF7EFFE00E072
:107C100009E008D0039840F0050003900498D0F8DC
:107C20000811C8480165C74890F85410049890F8A6
:107C30002401814209D0039840F005000390049884
:107C400090F82411BF4880F85410049890F824014B
:107C500000287DD0BB4890F85610049890F8260173
:107C6000814207D1B74890F85610049890F8270140
:107C7000814216D0039840F005000390049890F8D4
:107C80002601012809D1049890F80F01012804D198
:107C90000121AC4880F8561003E00021A94880F883
:107CA0005610A84890F85710049890F8280181427F
:107CB00009D0039840F005000390049890F828112B
:107CC000A04880F857100422049800F58C719D4854
:107CD0005830FBF746FB48B1039840F0050003908D
:107CE000984954310498D0F8180148609548C16DFE
:107CF0000498D0F81401814209D0039840F005009F
:107D00000390904954310498D0F814018860049885
:107D1000D0F81C0102908B48006E01900299FBF78D
:107D200065FE08D0039840F0050003900498D0F851
:107D30001C11844801660498D0F820010290814803
:107D4000406E01900299FBF751FE0AD0039800E0C3
:107D500007E040F0050003900498D0F8201179481E
:107D60004166784890F86810049890F83C01814288
:107D700009D0039840F005000390049890F83C1156
:107D8000704880F86810049890F83C01F0B36D4892
:107D900090F86A10049890F83E01814207D1694832
:107DA00090F86A10049890F83F01814216D0039829
:107DB00040F005000390049890F83E01012809D195
:107DC000049890F83F01012804D101215D4880F812
:107DD0006A1003E000215B4880F86A10594890F867
:107DE0006B10049890F84001814209D0039840F04C
:107DF00005000390049890F84011524880F86B10E9
:107E00000422049800F598714E4800E046E06C307A
:107E1000FBF7A7FA48B1039840F0050003904949E1
:107E200068310498D0F8300148604648016F0498E2
:107E3000D0F82C01814209D0039840F0050003904E
:107E4000404968310498D0F82C0188600498D0F833
:107E5000340102903B48406F01900299FBF7C6FD48
:107E600008D0039840F0050003900498D0F834112E
:107E7000344841670498D0F8380102903148806F47
:107E800001900299FBF7B2FD08D0039840F005007D
:107E900003900498D0F838112A488167294890F84F
:107EA0007C10049890F85401814209D0039840F066
:107EB00005000390049890F85411224880F87C1033
:107EC000049890F85401F8B31E4890F87E10049876
:107ED00090F85601814207D11A4890F87E10049814
:107EE00090F85701814216D0039840F005000390A6
:107EF000049890F85601012809D1049890F8570188
:107F0000012804D101210F4880F87E1003E00021F0
:107F10000C4880F87E100B4890F87F10049890F879
:107F20005801814209D0039840F00500039004985D
:107F300090F85811034880F87F100422049800F547
:107F4000A47102E0D400002050E0FE48FBF709FADB
:107F500048B1039840F005000390FA49091F0498BE
:107F6000D0F848014860F7488038D0F88410049869
:107F7000D0F84401814209D0039840F005000390F5
:107F8000F049091F0498D0F8440188600498D0F89B
:107F90004C010290EB488038D0F88800019002999B
:107FA000FBF724FD0AD0039840F0050003900498E5
:107FB000D0F84C11E3488038C0F888100498D0F805
:107FC00050010290DF488038D0F88C00019002996F
:107FD000FBF70CFD0AD0039840F0050003900498CD
:107FE000D0F85011D7488038C0F88C10D548803868
:107FF00090F89010049890F86C0181420AD0039890
:1080000040F005000390049890F86C11CD4880383A
:1080100080F89010049890F86C01E8B3C948803853
:1080200090F89210049890F86E01814208D1C548EA
:10803000803890F89210049890F86F01814218D01F
:10804000039840F005000390049890F86E01012811
:108050000AD1049890F86F01012805D10121B9488F
:10806000803880F8921004E00021B648803880F80B
:108070009210B448803890F89310049890F87001EA
:1080800081420CD0039840F005000390049890F8CA
:108090007011AC48803800E057E080F8931004225B
:1080A000049800F5B071A7481430FBF75AF948B1AD
:1080B000039840F005000390A24910310498D0F8CD
:1080C000600148609F488038D0F898100498D0F834
:1080D0005C01814209D0039840F005000390994962
:1080E00010310498D0F85C0188600498D0F86401DD
:1080F000029094488038D0F89C0001900299FBF7D8
:1081000075FC0AD0039840F0050003900498D0F85D
:1081100064118C488038C0F89C100498D0F868012D
:10812000029088488038D0F8A00001900299FBF7AF
:108130005DFC0AD0039840F0050003900498D0F845
:10814000681180488038C0F8A0107E48803890F8C8
:10815000A410049890F8840181420AD0039840F05A
:1081600005000390049890F884117648803880F8D0
:10817000A410049890F88401E8B37248803890F80D
:10818000A610049890F88601814208D16D48803885
:1081900090F8A610049890F88701814218D00398AF
:1081A00040F005000390049890F8860101280AD158
:1081B000049890F88701012805D101216148803891
:1081C00080F8A61004E000215E48803880F8A610F0
:1081D0005C48803890F8A710049890F88801814294
:1081E0000CD0039840F005000390049890F8881193
:1081F0005448803800E057E080F8A7100422049823
:1082000000F5BC714F482830FBF7ABF848B1039834
:1082100040F0050003904B4924310498D0F87801D0
:10822000486048488038D0F8AC100498D0F8740101
:10823000814209D0039840F0050003904149243160
:108240000498D0F8740188600498D0F87C010290FA
:108250003C488038D0F8B00001900299FBF7C6FB8B
:108260000AD0039840F0050003900498D0F87C11E0
:1082700034488038C0F8B0100498D0F880010290DB
:1082800030488038D0F8B40001900299FBF7AEFB7B
:108290000AD0039840F0050003900498D0F88011AC
:1082A00028488038C0F8B4102648803890F8B810B4
:1082B000049890F89C0181420AD0039840F0050090
:1082C0000390049890F89C111E48803880F8B810EC
:1082D000049890F89C01B8B31A48803890F8BA1006
:1082E000049890F89E01814208D11648803890F891
:1082F000BA10049890F89F01814218D0039840F07A
:1083000005000390049890F89E0101280AD1049872
:1083100090F89F01012805D101210A48803880F892
:10832000BA1004E000210748803880F8BA100548E8
:10833000803890F8BB10049890F8A00181420DD0CD
:10834000039802E05401002059E040F0050003903A
:10835000049890F8A011FE4880F8BB1004220498FD
:1083600000F5C871FA48BC30FAF7FBFF48B1039832
:1083700040F005000390F649B8310498D0F8900118
:108380004860F348D0F8C0100498D0F88C018142BE
:1083900009D0039840F005000390ED49B8310498E6
:1083A000D0F88C0188600498D0F894010290E848D5
:1083B000D0F8C40001900299FBF718FB09D003988C
:1083C00040F0050003900498D0F89411E048C0F8FC
:1083D000C4100498D0F898010290DD48D0F8C80085
:1083E00001900299FBF702FB09D0039840F00500C9
:1083F00003900498D0F89811D548C0F8C810D44814
:1084000090F8CC10049890F8B401814209D00398F8
:1084100040F005000390049890F8B411CC4880F81F
:10842000CC10049890F8B401F0B3C94890F8CE107D
:10843000049890F8B601814207D1C54890F8CE1053
:10844000049890F8B701814216D0039840F00500D7
:108450000390049890F8B601012809D1049890F887
:10846000B701012804D10121B94880F8CE1003E0FA
:108470000021B74880F8CE10B54890F8CF10049886
:1084800090F8B801814209D0039840F005000390AC
:10849000049890F8B811AE4880F8CF1004220498E0
:1084A00000F5D471AA4800E04BE0D030FAF759FF4C
:1084B00048B1039840F005000390A549CC310498D9
:1084C000D0F8A8014860A248D0F8D4100498D0F899
:1084D000A401814209D0039840F0050003909C4913
:1084E000CC310498D0F8A40188600498D0F8AC018D
:1084F00002909748D0F8D80001900299FBF776FADD
:1085000009D0039840F0050003900498D0F8AC110E
:108510008F48C0F8D8100498D0F8B00102908C4869
:10852000D0F8DC0001900299FBF760FA09D00398BB
:1085300040F0050003900498D0F8B0118448C0F8CA
:10854000DC10834890F8E010049890F8CC01814248
:1085500009D0039840F005000390049890F8CC11DE
:108560007B4880F8E010049890F8CC01F0B378488C
:1085700090F8E210049890F8CE01814207D1744837
:1085800090F8E210049890F8CF01814216D0039839
:1085900040F005000390049890F8CE01012809D11D
:1085A000049890F8CF01012804D10121684880F88F
:1085B000E21003E00021664880F8E210644890F879
:1085C000E310049890F8D001814209D0039840F05C
:1085D00005000390049890F8D0115D4880F8E310EE
:1085E0000422049800F5E071594800E04BE0E430C3
:1085F000FAF7B7FE48B1039840F0050003905449DC
:10860000E0310498D0F8C00148605148D0F8E81033
:108610000498D0F8BC01814209D0039840F00500CD
:1086200003904B49E0310498D0F8BC01886004986D
:10863000D0F8C40102904648D0F8EC0001900299AD
:10864000FBF7D4F909D0039840F005000390049893
:10865000D0F8C4113E48C0F8EC100498D0F8C80116
:1086600002903B48D0F8F00001900299FBF7BEF968
:1086700009D0039840F0050003900498D0F8C81181
:108680003348C0F8F010324890F8F410049890F88D
:10869000E401814209D0039840F00500039004985A
:1086A00090F8E4112A4880F8F410049890F8E40156
:1086B000F0B3274890F8F610049890F8E60181424C
:1086C00007D1234890F8F610049890F8E70181420A
:1086D00016D0039840F005000390049890F8E60146
:1086E000012809D1049890F8E701012804D101215B
:1086F000174880F8F61003E00021154880F8F610BE
:10870000134890F8F710049890F8E801814209D0D6
:10871000039840F005000390049890F8E8110C4885
:1087200080F8F7100422049800F5EC71084800E086
:108730004EE0F830FAF715FE48B1039840F0050016
:1087400003900349F4310498D0F8D801486001E05F
:10875000D4000020FE48D0F8FC100498D0F8D401D2
:10876000814209D0039840F005000390F849F431A4
:108770000498D0F8D40188600498D0F8DC01029005
:10878000F348D0F8000101900299FBF72FF909D0C6
:10879000039840F0050003900498D0F8DC11EC48F1
:1087A000C0F800110498D0F8E0010290E848D0F831
:1087B000040101900299FBF719F909D0039840F0E0
:1087C000050003900498D0F8E011E148C0F80411C6
:1087D000DF4890F80811049890F8FC01814209D014
:1087E000039840F005000390049890F8FC11D848D5
:1087F00080F80811049890F8FC01E8B3D44890F888
:108800000A11049890F8FE01814207D1D04890F8EF
:108810000A11049890F8FF01814216D0039840F0A5
:1088200005000390049890F8FE01012809D10498EE
:1088300090F8FF01012804D10121C54880F80A11F0
:1088400003E00021C24880F80A11C14890F80B11DA
:10885000049890F80002814209D0039840F0050086
:108860000390049890F80012B94880F80B11042284
:10887000049800F5F87100E04BE0B648FAF771FD96
:1088800048B1039840F005000390B249091F0498CD
:10889000D0F8F0014860AE48D0F810110498D0F834
:1088A000EC01814209D0039840F005000390A949EA
:1088B000091F0498D0F8EC0188600498D0F8F401FE
:1088C0000290A348D0F8140101900299FBF78EF8AA
:1088D00009D0039840F0050003900498D0F8F411F3
:1088E0009B48C0F814110498D0F8F80102909848F9
:1088F000D0F8180101900299FBF778F809D0039895
:1089000040F0050003900498D0F8F8119048C0F8A2
:1089100018118F4890F81C11049890F814028142A5
:1089200009D0039840F005000390049890F81412C1
:10893000874880F81C11049890F81402F0B384481A
:1089400090F81E11049890F81602814207D18048D1
:1089500090F81E11049890F81702814216D00398DF
:1089600040F005000390049890F81602012809D100
:10897000049890F81702012804D10121744880F866
:108980001E1103E00021724880F81E11704890F813
:108990001F11049890F81802814209D0039840F002
:1089A00005000390049890F81812694880F81F1188
:1089B0000422049800F50271664800E04BE0143090
:1089C000FAF7CFFC48B1039840F0050003906149E5
:1089D00010310498D0F8080248605D48D0F824119E
:1089E0000498D0F80402814209D0039840F00500B1
:1089F0000390584910310498D0F804028860049814
:108A0000D0F80C0202905248D0F828010190029947
:108A1000FAF7ECFF09D0039840F0050003900498A2
:108A2000D0F80C124A48C0F828110498D0F8100267
:108A300002904748D0F82C0101900299FAF7D6FF2E
:108A400009D0039840F0050003900498D0F8101264
:108A50003F48C0F82C113E4890F83011049890F827
:108A60002C02814209D0039840F00500039004983D
:108A700090F82C12364880F83011049890F82C02A7
:108A8000F0B3334890F83211049890F82E028142E6
:108A900007D12F4890F83211049890F82F028142A4
:108AA00016D0039840F005000390049890F82E0229
:108AB000012809D1049890F82F02012804D101213E
:108AC000234880F8321103E00021214880F8321158
:108AD0001F4890F83311049890F83002814209D071
