:020000040800F2
:10000000600900205100000831030008D7020008F1
:100010002D0300089900000891040008DFF80CD0B7
:1000200000F028F800480047CD04000860090020CF
:10003000EFF30980704780F309887047EFF3088079
:10004000704780F30888704740BA7047C0BA70475D
:100050000648804706480047FEE7FEE7FEE7FEE762
:10006000FEE7FEE7FEE7FEE7FEE7FEE741040008E5
:100070001D000008064C074D06E0E06840F0010353
:1000800094E8070098471034AC42F6D3FFF7CAFF54
:10009000B8050008D805000800BFFEE770B50546A2
:1000A000042440F6FF7000F069F80446042C19D1CE
:1000B0000D48006940F002000B490861084645619F
:1000C000006940F04000086140F6FF7000F056F80B
:1000D0000446012C06D00448006941F6FD71084031
:1000E00001490861204670BD0020024004200B49F0
:1000F000C96801F0010109B101200EE00749C96892
:1001000001F0040109B1022007E00449C96801F0C7
:10011000100109B1032000E00420704700200240D4
:1001200070B505460E4604240F2000F027F804465B
:10013000042C13D10A48006940F001000849086105
:100140002E800F2000F01AF80446012C06D0044837
:10015000006941F6FE71084001490861204670BD02
:100160000020024002480349486003484860704745
:100170002301674500200240AB89EFCD70B50446EE
:100180000425FFF7B3FF054605E000F092F9FFF7FD
:10019000ADFF0546641E012D01D1002CF5D104B937
:1001A0000525284670BD2DE9F041024600250026B0
:1001B000002000230024002791F803C00CF00F0555
:1001C00091F803C00CF0100CBCF1000F03D091F8B3
:1001D00002C04CEA050591F800C0BCF1000F31D017
:1001E000146800202BE04FF0010C0CFA00F3B1F87A
:1001F00000C00CEA03069E4220D183004FF00F0C92
:100200000CFA03F7BC4305FA03FC4CEA040491F82A
:1002100003C0BCF1280F06D14FF0010C0CFA00FC12
:10022000C2F814C00AE091F803C0BCF1480F05D130
:100230004FF0010C0CFA00FCC2F810C0401C08285A
:10024000D1D31460B1F800C0BCF1FF0F34DD5468A5
:1002500000202EE000F1080C4FF0010808FA0CF322
:10026000B1F800C00CEA03069E4221D183004FF092
:100270000F0C0CFA03F7BC4305FA03FC4CEA040428
:1002800091F803C0BCF1280F05D100F1080C08FA61
:100290000CF8C2F8148091F803C0BCF1480F07D1E4
:1002A00000F1080C4FF0010808FA0CF8C2F81080B1
:1002B000401C0828CED35460BDE8F08102460020DF
:1002C000D3680B400BB1012000E000207047416172
:1002D00070470161704700BFFEE7000008B50121CB
:1002E000402000F027F80420ADF8000010208DF821
:1002F000030069460348FFF756FF04210148FFF752
:10030000E8FF08BD0018014010B504210648FFF7BA
:10031000D5FF20B104210448FFF7D9FF03E00421F1
:100320000148FFF7D6FF10BD0018014000BFFEE7EF
:100330007047000029B1064A92690243044B9A6152
:1003400004E0034A92698243014B9A6170470000BE
:100350000010024010B500F001F810BD0CB50020EF
:10036000019000903448006840F4803032490860C1
:1003700000BF3148006800F4003000900198401C34
:100380000190009818B90198B0F5A06FF1D12A48F2
:10039000006800F4003010B10120009001E000205E
:1003A00000900098012844D12448006840F01000D3
:1003B000224908600846006820F0030008600846EB
:1003C000006840F0020008601B4840681A49486015
:1003D0000846406848600846406840F480604860CD
:1003E0000846406820F47C1048600846406840F4A5
:1003F000E81048600846006840F08070086000BF60
:100400000D48006800F000700028F9D00A484068E4
:1004100020F00300084948600846406840F00200A8
:10042000486000BF0448406800F00C000828F9D17B
:1004300001E000BFFEE70CBD0010024000200240BA
:1004400010B51048006840F001000E4908600846E9
:1004500040680D4908400B494860084600680B4950
:100460000840084908600846006820F480200860B9
:100470000846406820F4FE00486000208860FFF7CE
:1004800069FF10BD001002400000FFF8FFFFF6FEFC
:1004900000BFFEE702E008C8121F08C1002AFAD117
:1004A00070477047002001E001C1121F002AFBD1F4
:1004B000704708B500200090FF20009002E00098EF
:1004C000401E009000980028F9D108BD10B5FFF734
:1004D000B7FFFFF703FF314800686FF30F00B0F17B
:1004E000005F4AD12D48001D00682D490840B0F139
:1004F000006F42D1FFF736FE2A48008801282FD12D
:10050000002407E028496018FFF7C8FDFFF7FCFE4C
:1005100004F50064B4F57A3FF4DB00240AE0234AD2
:100520002244B2F80018204AA018FFF7F9FDFFF79F
:10053000EBFEA41CB4F57A3FF1DB002407E0174979
:100540006018FFF7ABFDFFF7DFFE04F50064B4F5BC
:100550007A3FF4DB1348FFF7A1FDFFF7D5FE0CE06F
:10056000002407E00D496018FFF798FDFFF7CCFE67
:1005700004F50064B4F57A3FF4DB0B4840680C499D
:100580000860084600680B49086007490868FFF7DB
:1005900058FD084800688047002010BD0018040876
:1005A0000000FF0F002800080030000800100408B9
:1005B0000400002000000020D805000800000020F2
:1005C0001000000094040008E80500081000002056
:1005D00050090000A4040008000000000000000012
:0805E000000000000000000013
:040000050800001DD2
:00000001FF
